{
  "contractName": "Demo1",
  "abi": [
    {
      "inputs": [
        {
          "internalType": "address",
          "name": "",
          "type": "address"
        },
        {
          "internalType": "uint256",
          "name": "",
          "type": "uint256"
        }
      ],
      "name": "addressObj",
      "outputs": [
        {
          "internalType": "uint256",
          "name": "id",
          "type": "uint256"
        },
        {
          "internalType": "address",
          "name": "sender",
          "type": "address"
        },
        {
          "internalType": "address",
          "name": "recipient",
          "type": "address"
        },
        {
          "internalType": "uint256",
          "name": "amount",
          "type": "uint256"
        },
        {
          "internalType": "string",
          "name": "message",
          "type": "string"
        },
        {
          "internalType": "uint256",
          "name": "timestamp",
          "type": "uint256"
        },
        {
          "internalType": "string",
          "name": "keyword",
          "type": "string"
        }
      ],
      "stateMutability": "view",
      "type": "function",
      "constant": true
    },
    {
      "inputs": [],
      "name": "idCount",
      "outputs": [
        {
          "internalType": "uint256",
          "name": "",
          "type": "uint256"
        }
      ],
      "stateMutability": "view",
      "type": "function",
      "constant": true
    },
    {
      "inputs": [
        {
          "internalType": "uint256",
          "name": "",
          "type": "uint256"
        }
      ],
      "name": "infoArray",
      "outputs": [
        {
          "internalType": "uint256",
          "name": "id",
          "type": "uint256"
        },
        {
          "internalType": "address",
          "name": "sender",
          "type": "address"
        },
        {
          "internalType": "address",
          "name": "recipient",
          "type": "address"
        },
        {
          "internalType": "uint256",
          "name": "amount",
          "type": "uint256"
        },
        {
          "internalType": "string",
          "name": "message",
          "type": "string"
        },
        {
          "internalType": "uint256",
          "name": "timestamp",
          "type": "uint256"
        },
        {
          "internalType": "string",
          "name": "keyword",
          "type": "string"
        }
      ],
      "stateMutability": "view",
      "type": "function",
      "constant": true
    },
    {
      "inputs": [
        {
          "internalType": "address",
          "name": "_recipient",
          "type": "address"
        },
        {
          "internalType": "uint256",
          "name": "_amount",
          "type": "uint256"
        },
        {
          "internalType": "string",
          "name": "_message",
          "type": "string"
        },
        {
          "internalType": "string",
          "name": "_keyword",
          "type": "string"
        }
      ],
      "name": "setInfoArray",
      "outputs": [],
      "stateMutability": "nonpayable",
      "type": "function"
    },
    {
      "inputs": [],
      "name": "getInfoMapping",
      "outputs": [
        {
          "components": [
            {
              "internalType": "uint256",
              "name": "id",
              "type": "uint256"
            },
            {
              "internalType": "address",
              "name": "sender",
              "type": "address"
            },
            {
              "internalType": "address",
              "name": "recipient",
              "type": "address"
            },
            {
              "internalType": "uint256",
              "name": "amount",
              "type": "uint256"
            },
            {
              "internalType": "string",
              "name": "message",
              "type": "string"
            },
            {
              "internalType": "uint256",
              "name": "timestamp",
              "type": "uint256"
            },
            {
              "internalType": "string",
              "name": "keyword",
              "type": "string"
            }
          ],
          "internalType": "struct Demo1.infoObj[]",
          "name": "",
          "type": "tuple[]"
        }
      ],
      "stateMutability": "view",
      "type": "function",
      "constant": true
    }
  ],
  "bytecode": "0x60806040526000805534801561001457600080fd5b50610a81806100246000396000f3fe608060405234801561001057600080fd5b5060043610610073577c0100000000000000000000000000000000000000000000000000000000600035046310e386e1811461007857806354770ac9146100a7578063db2476a6146100bc578063e6e46238146100cf578063ec6bc57c146100e6575b600080fd5b61008b61008636600461059e565b6100fb565b60405161009e97969594939291906105fd565b60405180910390f35b6100ba6100b5366004610733565b610269565b005b61008b6100ca3660046107b1565b610369565b6100d860005481565b60405190815260200161009e565b6100ee6103cc565b60405161009e91906107db565b6001818154811061010b57600080fd5b600091825260209091206007909102018054600182015460028301546003840154600485018054949650600160a060020a03938416959290931693909290610152906108a3565b80601f016020809104026020016040519081016040528092919081815260200182805461017e906108a3565b80156101cb5780601f106101a0576101008083540402835291602001916101cb565b820191906000526020600020905b8154815290600101906020018083116101ae57829003601f168201915b5050505050908060050154908060060180546101e6906108a3565b80601f0160208091040260200160405190810160405280929190818152602001828054610212906108a3565b801561025f5780601f106102345761010080835404028352916020019161025f565b820191906000526020600020905b81548152906001019060200180831161024257829003601f168201915b5050505050905087565b600160008082825461027b91906108f6565b9091555050336000818152600260208181526040808420815160e08101835285548152808401968752600160a060020a038b8116938201938452606082018b8152608083018b81524260a085015260c084018b9052845460018181018755958a529690982083516007909702019586559751928501805493821673ffffffffffffffffffffffffffffffffffffffff1994851617905592519484018054959093169490911693909317905592516003840155905190919060048201906103419082610985565b5060a0820151600582015560c082015160068201906103609082610985565b50505050505050565b6002602052816000526040600020818154811061038557600080fd5b600091825260209091206007909102018054600182015460028301546003840154600485018054949750600160a060020a03938416965091909216939192610152906108a3565b336000908152600260209081526040808320805482518185028101850190935280835260609492939192909184015b828210156105955760008481526020908190206040805160e08101825260078602909201805483526001810154600160a060020a039081169484019490945260028101549093169082015260038201546060820152600482018054919291608084019190610468906108a3565b80601f0160208091040260200160405190810160405280929190818152602001828054610494906108a3565b80156104e15780601f106104b6576101008083540402835291602001916104e1565b820191906000526020600020905b8154815290600101906020018083116104c457829003601f168201915b5050505050815260200160058201548152602001600682018054610504906108a3565b80601f0160208091040260200160405190810160405280929190818152602001828054610530906108a3565b801561057d5780601f106105525761010080835404028352916020019161057d565b820191906000526020600020905b81548152906001019060200180831161056057829003601f168201915b505050505081525050815260200190600101906103fb565b50505050905090565b6000602082840312156105b057600080fd5b5035919050565b6000815180845260005b818110156105dd576020818501810151868301820152016105c1565b506000602082860101526020601f19601f83011685010191505092915050565b8781526000600160a060020a03808916602084015280881660408401525085606083015260e0608083015261063560e08301866105b7565b8460a084015282810360c084015261064d81856105b7565b9a9950505050505050505050565b8035600160a060020a038116811461067257600080fd5b919050565b7f4e487b7100000000000000000000000000000000000000000000000000000000600052604160045260246000fd5b600082601f8301126106b757600080fd5b813567ffffffffffffffff808211156106d2576106d2610677565b604051601f8301601f19908116603f011681019082821181831017156106fa576106fa610677565b8160405283815286602085880101111561071357600080fd5b836020870160208301376000602085830101528094505050505092915050565b6000806000806080858703121561074957600080fd5b6107528561065b565b935060208501359250604085013567ffffffffffffffff8082111561077657600080fd5b610782888389016106a6565b9350606087013591508082111561079857600080fd5b506107a5878288016106a6565b91505092959194509250565b600080604083850312156107c457600080fd5b6107cd8361065b565b946020939093013593505050565b60208082528251828201819052600091906040908185019080840286018301878501865b8381101561089557888303603f1901855281518051845287810151600160a060020a03908116898601528782015116878501526060808201519085015260808082015160e08287018190529190610858838801826105b7565b9250505060a080830151818701525060c0808301519250858203818701525061088181836105b7565b9689019694505050908601906001016107ff565b509098975050505050505050565b6002810460018216806108b757607f821691505b6020821081036108f0577f4e487b7100000000000000000000000000000000000000000000000000000000600052602260045260246000fd5b50919050565b80820180821115610930577f4e487b7100000000000000000000000000000000000000000000000000000000600052601160045260246000fd5b92915050565b601f821115610980576000818152602081206020601f8601048101602086101561095d5750805b6020601f860104820191505b8181101561097c57828155600101610969565b5050505b505050565b815167ffffffffffffffff81111561099f5761099f610677565b6109b3816109ad84546108a3565b84610936565b602080601f8311600181146109ec57600084156109d05750858301515b60028086026008870290910a600019041982161786555061097c565b600085815260208120601f198616915b82811015610a1b578886015182559484019460019091019084016109fc565b5085821015610a3b57878501516008601f88160260020a60001904191681555b505050505060020260010190555056fea264697066735822122070024e4e00ea7ca875348d22493de2b9a0f98c9a63bf12c1c000327815bd683e64736f6c63430008110033",
  "immutableReferences": {},
  "source": "// SPDX-License-Identifier: GPL-3.0\r\npragma solidity ^0.8.17;\r\n\r\ncontract Demo1 {\r\n    uint256 public idCount = 0;\r\n    struct infoObj {\r\n        uint256 id;\r\n        address sender;\r\n        address recipient;\r\n        uint256 amount;\r\n        string message;\r\n        uint256 timestamp;\r\n        string keyword;\r\n    }\r\n    infoObj[] public infoArray;\r\n    mapping(address=>infoObj[]) public addressObj;\r\n\r\n    function setInfoArray(address _recipient,uint256 _amount,string memory _message,string memory _keyword) public {\r\n        idCount += 1;\r\n        addressObj[msg.sender].push(infoObj(idCount,msg.sender,_recipient,_amount,_message,block.timestamp,_keyword));\r\n    }\r\n    function getInfoMapping() public view returns(infoObj[] memory){\r\n        return addressObj[msg.sender];\r\n    }\r\n}\r\n",
  "sourcePath": "F:\\xuexi\\2023\\solidity demo\\mySolidity\\solidity_demo\\contracts\\Demo1.sol",
  "compiler": {
    "name": "solc",
    "version": "0.8.17+commit.8df45f5f.Emscripten.clang"
  },
  "schemaVersion": "3.4.11",
  "updatedAt": "2023-02-28T11:30:42.949Z",
  "networkType": "ethereum",
  "devdoc": {
    "kind": "dev",
    "methods": {},
    "version": 1
  },
  "userdoc": {
    "kind": "user",
    "methods": {},
    "version": 1
  }
}